{
  "_format": "hh-sol-artifact-1",
  "contractName": "RandomNumberConsumer",
  "sourceName": "contracts/VRF.sol",
  "abi": [
    {
      "inputs": [],
      "stateMutability": "nonpayable",
      "type": "constructor"
    },
    {
      "inputs": [],
      "name": "fee",
      "outputs": [
        {
          "internalType": "uint256",
          "name": "",
          "type": "uint256"
        }
      ],
      "stateMutability": "view",
      "type": "function"
    },
    {
      "inputs": [],
      "name": "getRandomNumber",
      "outputs": [
        {
          "internalType": "bytes32",
          "name": "",
          "type": "bytes32"
        }
      ],
      "stateMutability": "nonpayable",
      "type": "function"
    },
    {
      "inputs": [],
      "name": "keyHash",
      "outputs": [
        {
          "internalType": "bytes32",
          "name": "",
          "type": "bytes32"
        }
      ],
      "stateMutability": "view",
      "type": "function"
    },
    {
      "inputs": [],
      "name": "randomResult",
      "outputs": [
        {
          "internalType": "uint256",
          "name": "",
          "type": "uint256"
        }
      ],
      "stateMutability": "view",
      "type": "function"
    },
    {
      "inputs": [
        {
          "internalType": "bytes32",
          "name": "requestId",
          "type": "bytes32"
        },
        {
          "internalType": "uint256",
          "name": "randomness",
          "type": "uint256"
        }
      ],
      "name": "rawFulfillRandomness",
      "outputs": [],
      "stateMutability": "nonpayable",
      "type": "function"
    }
  ],
  "bytecode": "0x60c060405234801561001057600080fd5b5073f0d54349addcf704f77ae15b96510dea15cb795273514910771af9ca656af840dff83e8264ecf986ca8173ffffffffffffffffffffffffffffffffffffffff1660a08173ffffffffffffffffffffffffffffffffffffffff1660601b815250508073ffffffffffffffffffffffffffffffffffffffff1660808173ffffffffffffffffffffffffffffffffffffffff1660601b8152505050507faa77729d3466ca35ae8d28b3bbac7cc36a5031efdc430821c02bc31a238af44560001b600181905550671bc16d674ec8000060028190555060805160601c60a05160601c61081a6101156000396000818160fe0152610203015260006101c7015261081a6000f3fe608060405234801561001057600080fd5b50600436106100575760003560e01c806342619f661461005c57806361728f391461007a57806394985ddd14610098578063dbdff2c1146100b4578063ddca3f43146100d2575b600080fd5b6100646100f0565b60405161007191906105ff565b60405180910390f35b6100826100f6565b60405161008f9190610556565b60405180910390f35b6100b260048036038101906100ad91906103f9565b6100fc565b005b6100bc610198565b6040516100c99190610556565b60405180910390f35b6100da6101b2565b6040516100e791906105ff565b60405180910390f35b60035481565b60015481565b7f000000000000000000000000000000000000000000000000000000000000000073ffffffffffffffffffffffffffffffffffffffff163373ffffffffffffffffffffffffffffffffffffffff161461018a576040517f08c379a0000000000000000000000000000000000000000000000000000000008152600401610181906105df565b60405180910390fd5b61019482826101b8565b5050565b6000806101a96001546002546101c3565b90508091505090565b60025481565b806003819055505050565b60007f000000000000000000000000000000000000000000000000000000000000000073ffffffffffffffffffffffffffffffffffffffff16634000aea07f000000000000000000000000000000000000000000000000000000000000000084866000604051602001610237929190610571565b6040516020818303038152906040526040518463ffffffff1660e01b815260040161026493929190610518565b602060405180830381600087803b15801561027e57600080fd5b505af1158015610292573d6000803e3d6000fd5b505050506040513d601f19601f820116820180604052508101906102b691906103d0565b5060006102d88460003060008089815260200190815260200160002054610322565b90506001600080868152602001908152602001600020546102f99190610647565b60008086815260200190815260200160002081905550610319848261035e565b91505092915050565b60008484848460405160200161033b949392919061059a565b6040516020818303038152906040528051906020012060001c9050949350505050565b600082826040516020016103739291906104ec565b60405160208183030381529060405280519060200120905092915050565b6000815190506103a08161079f565b92915050565b6000813590506103b5816107b6565b92915050565b6000813590506103ca816107cd565b92915050565b6000602082840312156103e257600080fd5b60006103f084828501610391565b91505092915050565b6000806040838503121561040c57600080fd5b600061041a858286016103a6565b925050602061042b858286016103bb565b9150509250929050565b61043e8161069d565b82525050565b61044d816106bb565b82525050565b61046461045f826106bb565b610722565b82525050565b60006104758261061a565b61047f8185610625565b935061048f8185602086016106ef565b61049881610765565b840191505092915050565b60006104b0601f83610636565b91506104bb82610776565b602082019050919050565b6104cf816106e5565b82525050565b6104e66104e1826106e5565b61072c565b82525050565b60006104f88285610453565b60208201915061050882846104d5565b6020820191508190509392505050565b600060608201905061052d6000830186610435565b61053a60208301856104c6565b818103604083015261054c818461046a565b9050949350505050565b600060208201905061056b6000830184610444565b92915050565b60006040820190506105866000830185610444565b61059360208301846104c6565b9392505050565b60006080820190506105af6000830187610444565b6105bc60208301866104c6565b6105c96040830185610435565b6105d660608301846104c6565b95945050505050565b600060208201905081810360008301526105f8816104a3565b9050919050565b600060208201905061061460008301846104c6565b92915050565b600081519050919050565b600082825260208201905092915050565b600082825260208201905092915050565b6000610652826106e5565b915061065d836106e5565b9250827fffffffffffffffffffffffffffffffffffffffffffffffffffffffffffffffff0382111561069257610691610736565b5b828201905092915050565b60006106a8826106c5565b9050919050565b60008115159050919050565b6000819050919050565b600073ffffffffffffffffffffffffffffffffffffffff82169050919050565b6000819050919050565b60005b8381101561070d5780820151818401526020810190506106f2565b8381111561071c576000848401525b50505050565b6000819050919050565b6000819050919050565b7f4e487b7100000000000000000000000000000000000000000000000000000000600052601160045260246000fd5b6000601f19601f8301169050919050565b7f4f6e6c7920565246436f6f7264696e61746f722063616e2066756c66696c6c00600082015250565b6107a8816106af565b81146107b357600080fd5b50565b6107bf816106bb565b81146107ca57600080fd5b50565b6107d6816106e5565b81146107e157600080fd5b5056fea2646970667358221220c5297f1b206d896e814a619c670c1d55e8ef8d0e6d63bfa658044015c2a7f25964736f6c63430008040033",
  "linkReferences": {},
  "deployedLinkReferences": {}
}