{
  "_format": "hh-sol-artifact-1",
  "contractName": "Capsule",
  "sourceName": "contracts/Keeper.sol",
  "abi": [
    {
      "inputs": [
        {
          "internalType": "bytes",
          "name": "",
          "type": "bytes"
        }
      ],
      "name": "checkUpkeep",
      "outputs": [
        {
          "internalType": "bool",
          "name": "",
          "type": "bool"
        },
        {
          "internalType": "bytes",
          "name": "",
          "type": "bytes"
        }
      ],
      "stateMutability": "view",
      "type": "function"
    },
    {
      "inputs": [
        {
          "internalType": "uint256",
          "name": "_lockedUntil",
          "type": "uint256"
        }
      ],
      "name": "deposit",
      "outputs": [],
      "stateMutability": "payable",
      "type": "function"
    },
    {
      "inputs": [
        {
          "internalType": "bytes",
          "name": "",
          "type": "bytes"
        }
      ],
      "name": "performUpkeep",
      "outputs": [],
      "stateMutability": "nonpayable",
      "type": "function"
    }
  ],
  "bytecode": "0x608060405234801561001057600080fd5b506103f9806100206000396000f3fe6080604052600436106100345760003560e01c80634585e33b146100395780636e04ff0d14610062578063b6b55f25146100a0575b600080fd5b34801561004557600080fd5b50610060600480360381019061005b9190610250565b6100bc565b005b34801561006e57600080fd5b5061008960048036038101906100849190610250565b61013b565b604051610097929190610306565b60405180910390f35b6100ba60048036038101906100b59190610295565b610198565b005b60015442116100ca57600080fd5b60008054906101000a900473ffffffffffffffffffffffffffffffffffffffff1673ffffffffffffffffffffffffffffffffffffffff166108fc479081150290604051600060405180830381858888f19350505050158015610130573d6000803e3d6000fd5b506001600090555050565b60006060600080600154118015610153575060015442115b9050806040518060400160405280600281526020017f307800000000000000000000000000000000000000000000000000000000000081525092509250509250929050565b6000600154146101a757600080fd5b80600181905550336000806101000a81548173ffffffffffffffffffffffffffffffffffffffff021916908373ffffffffffffffffffffffffffffffffffffffff16021790555050565b60008083601f84011261020357600080fd5b8235905067ffffffffffffffff81111561021c57600080fd5b60208301915083600182028301111561023457600080fd5b9250929050565b60008135905061024a816103ac565b92915050565b6000806020838503121561026357600080fd5b600083013567ffffffffffffffff81111561027d57600080fd5b610289858286016101f1565b92509250509250929050565b6000602082840312156102a757600080fd5b60006102b58482850161023b565b91505092915050565b6102c781610352565b82525050565b60006102d882610336565b6102e28185610341565b93506102f2818560208601610368565b6102fb8161039b565b840191505092915050565b600060408201905061031b60008301856102be565b818103602083015261032d81846102cd565b90509392505050565b600081519050919050565b600082825260208201905092915050565b60008115159050919050565b6000819050919050565b60005b8381101561038657808201518184015260208101905061036b565b83811115610395576000848401525b50505050565b6000601f19601f8301169050919050565b6103b58161035e565b81146103c057600080fd5b5056fea264697066735822122072ca45951903b84f0b895c2ad4c0ef582dda15c70cf5840eb73f2a157be1a2b664736f6c63430008040033",
  "linkReferences": {},
  "deployedLinkReferences": {}
}